:020000040800F2
:1000000000000220B53800088D3000088F3000084D
:10001000913000089330000895300008000000007F
:100020000000000000000000000000009730000801
:1000300099300008000000009B3000089D30000847
:100040000539000805390008053900080539000898
:100050000539000805390008053900080539000888
:100060000539000805390008053900080539000878
:10007000A130000805390008AD3000080539000836
:10008000B9300008C53000080539000805390008F6
:100090000539000805390008053900080539000848
:1000A0000539000805390008053900080539000838
:1000B0000539000805390008053900080539000828
:1000C0000539000805390008053900080539000818
:1000D00005390008D1300008DD300008E93000089B
:1000E00005390008053900080539000805390008F8
:1000F00005390008053900080539000805390008E8
:1001000005390008053900080539000805390008D7
:100110000539000805390008F530000801310008EC
:10012000053900080D3100081931000805390008AB
:1001300005390008053900080539000805390008A7
:100140000539000805390008053900080539000897
:100150000539000825310008313100083D3100081B
:100160000539000805390008053900080539000877
:1001700005390008053900080539000800000000AD
:080180000539000805390008EB
:1001880010B5054C237833B9044B13B10448AFF3C9
:1001980000800123237010BD4C00002000000000E7
:1001A8003044000808B5034B1BB103490348AFF3BB
:1001B800008008BD00000000500000203044000806
:1001C80081F0004102E000BF83F0004330B54FEA00
:1001D80041044FEA430594EA050F08BF90EA020F6D
:1001E8001FBF54EA000C55EA020C7FEA645C7FEA00
:1001F800655C00F0E2804FEA5454D4EB5555B8BF23
:100208006D420CDD2C4480EA020281EA030382EA93
:10021800000083EA010180EA020281EA0303362D25
:1002280088BF30BD11F0004F4FEA01314FF4801CF8
:100238004CEA113102D0404261EB410113F0004F0A
:100248004FEA03334CEA133302D0524263EB4303C1
:1002580094EA050F00F0A780A4F10104D5F1200E5F
:100268000DDB02FA0EFC22FA05F2801841F10001BA
:1002780003FA0EF2801843FA05F359410EE0A5F18E
:1002880020050EF1200E012A03FA0EFC28BF4CF0BF
:10029800020C43FA05F3C01851EBE37101F0004575
:1002A80007D54FF0000EDCF1000C7EEB00006EEB82
:1002B8000101B1F5801F1BD3B1F5001F0CD349080C
:1002C8005FEA30004FEA3C0C04F101044FEA445263
:1002D80012F5800F80F09A80BCF1004F08BF5FEAEA
:1002E800500C50F1000041EB045141EA050130BDCA
:1002F8005FEA4C0C404141EB010111F4801FA4F16D
:100308000104E9D191F0000F04BF01460020B1FAC1
:1003180081F308BF2033A3F10B03B3F120020CDAF9
:100328000C3208DD02F1140CC2F10C0201FA0CF0D7
:1003380021FA02F10CE002F11402D8BFC2F1200C3C
:1003480001FA02F120FA0CFCDCBF41EA0C019040F2
:10035800E41AA2BF01EB0451294330BD6FEA04043B
:100368001F3C1CDA0C340EDC04F11404C4F1200226
:1003780020FA04F001FA02F340EA030021FA04F338
:1003880045EA030130BDC4F10C04C4F1200220FA8F
:1003980002F001FA04F340EA0300294630BD21FACD
:1003A80004F0294630BD94F0000F83F4801306BF93
:1003B80081F480110134013D4EE77FEA645C18BF87
:1003C8007FEA655C29D094EA050F08BF90EA020F1E
:1003D80005D054EA000C04BF1946104630BD91EA16
:1003E800030F1EBF0021002030BD5FEA545C05D119
:1003F8004000494128BF41F0004130BD14F5800458
:100408003CBF01F5801130BD01F0004545F0FE41CB
:1004180041F470014FF0000030BD7FEA645C1ABF00
:10042800194610467FEA655C1CBF0B46024650EA37
:10043800013406BF52EA033591EA030F41F4002163
:1004480030BD00BF90F0000F04BF0021704730B5E9
:100458004FF4806404F132044FF000054FF00001BE
:1004680050E700BF90F0000F04BF0021704730B57F
:100478004FF4806404F1320410F0004548BF404254
:100488004FF000013EE700BF42004FEAE2014FEAA9
:1004980031014FEA02701FBF12F07F4393F07F4F84
:1004A80081F06051704792F0000F14BF93F07F4FB6
:1004B800704730B54FF4607401F0004521F00041F9
:1004C80020E700BF50EA010208BF704730B54FF07F
:1004D80000050AE050EA010208BF704730B511F084
:1004E800004502D5404261EB41014FF4806404F1BC
:1004F80032045FEA915C3FF4DCAE4FF003025FEA3E
:10050800DC0C18BF03325FEADC0C18BF033202EBC5
:10051800DC02C2F1200300FA03FC20FA02F001FA1F
:1005280003FE40EA0E0021FA02F11444C1E600BFBE
:1005380070B54FF0FF0C4CF4E06C1CEA11541DBF71
:100548001CEA135594EA0C0F95EA0C0F00F0DEF83C
:100558002C4481EA030621EA4C5123EA4C5350EA21
:10056800013518BF52EA033541F4801143F4801372
:1005780038D0A0FB02CE4FF00005E1FB02E506F003
:100588000042E0FB03E54FF00006E1FB03569CF058
:10059800000F18BF4EF0010EA4F1FF04B6F5007F5E
:1005A80064F5407404D25FEA4E0E6D4146EB0606D0
:1005B80042EAC62141EA55514FEAC52040EA5E5059
:1005C8004FEACE2EB4F1FD0C88BFBCF5E06F1ED803
:1005D800BEF1004F08BF5FEA500E50F1000041EB3A
:1005E800045170BD06F0004646EA010140EA0200E7
:1005F80081EA0301B4EB5C04C2BFD4EB0C0541EA09
:10060800045170BD41F480114FF0000E013C00F31D
:10061800AB8014F1360FDEBF002001F0004170BD41
:10062800C4F10004203C35DA0C341BDC04F114045A
:10063800C4F1200500FA05F320FA04F001FA05F2E6
:1006480040EA020001F0004221F0004110EBD370B3
:1006580021FA04F642EB06015EEA430E08BF20EADF
:10066800D37070BDC4F10C04C4F1200500FA04F382
:1006780020FA05F001FA04F240EA020001F0004114
:1006880010EBD37041F100015EEA430E08BF20EA87
:10069800D37070BDC4F1200500FA05F24EEA020ECF
:1006A80020FA04F301FA05F243EA020321FA04F0FE
:1006B80001F0004121FA04F220EA020000EBD370B5
:1006C8005EEA430E08BF20EAD37070BD94F0000FB5
:1006D8000FD101F00046400041EB010111F4801FE9
:1006E80008BF013CF7D041EA060195F0000F18BF9A
:1006F800704703F00046520043EB030313F4801FD6
:1007080008BF013DF7D043EA0603704794EA0C0F8F
:100718000CEA135518BF95EA0C0F0CD050EA4106A5
:1007280018BF52EA4306D1D181EA030101F0004122
:100738004FF0000070BD50EA410606BF104619464A
:1007480052EA430619D094EA0C0F02D150EA013656
:1007580013D195EA0C0F05D152EA03361CBF104697
:1007680019460AD181EA030101F0004141F0FE4136
:1007780041F470014FF0000070BD41F0FE4141F4BA
:10078800780170BD70B54FF0FF0C4CF4E06C1CEABA
:1007980011541DBF1CEA135594EA0C0F95EA0C0F6F
:1007A80000F0A7F8A4EB050481EA030E52EA03352A
:1007B8004FEA013100F088804FEA03334FF080554B
:1007C80045EA131343EA12634FEA022245EA111578
:1007D80045EA10654FEA00260EF000419D4208BF29
:1007E800964244F1FD0404F5407402D25B084FEAD6
:1007F8003202B61A65EB03055B084FEA32024FF482
:1008080080104FF4002CB6EB020E75EB030E22BFDE
:10081800B61A754640EA0C005B084FEA3202B6EB9E
:10082800020E75EB030E22BFB61A754640EA5C004D
:100838005B084FEA3202B6EB020E75EB030E22BFDD
:10084800B61A754640EA9C005B084FEA3202B6EBDE
:10085800020E75EB030E22BFB61A754640EADC009D
:1008680055EA060E18D04FEA051545EA16754FEAFF
:1008780006164FEAC30343EA52734FEAC2025FEA1D
:100888001C1CC0D111F4801F0BD141EA00014FF0AC
:1008980000004FF0004CB6E711F4801F04BF01437D
:1008A8000020B4F1FD0C88BFBCF5E06F3FF6AFAE99
:1008B800B5EB030C04BFB6EB020C5FEA500C50F129
:1008C800000041EB045170BD0EF0004E4EEA1131AC
:1008D80014EB5C04C2BFD4EB0C0541EA045170BDB3
:1008E80041F480114FF0000E013C90E645EA060EF7
:1008F8008DE60CEA135594EA0C0F08BF95EA0C0F25
:100908003FF43BAF94EA0C0F0AD150EA01347FF46C
:1009180034AF95EA0C0F7FF425AF104619462CE743
:1009280095EA0C0F06D152EA03353FF4FDAE1046A6
:10093800194622E750EA410618BF52EA43067FF4F7
:10094800C5AE50EA41047FF40DAF52EA43057FF487
:10095800EBAE12E74FF0FF3C06E000BF4FF0010C92
:1009680002E000BF4FF0010C4DF804CD4FEA410CF6
:100978007FEA6C5C4FEA430C18BF7FEA6C5C1BD0C3
:1009880001B050EA410C0CBF52EA430C91EA030F44
:1009980002BF90EA020F0020704710F1000F91EAA1
:1009A800030F58BF994208BF90422CBFD8176FEA6F
:1009B800E37040F0010070474FEA410C7FEA6C5C3D
:1009C80002D150EA013C07D14FEA430C7FEA6C5C44
:1009D800D6D152EA033CD3D05DF8040B704700BF70
:1009E8008446104662468C461946634600E000BFBE
:1009F80001B5FFF7B7FF002848BF10F1000F01BD90
:100A08004DF808EDFFF7F4FF0CBF012000205DF85A
:100A180008FB00BF4DF808EDFFF7EAFF34BF0120DF
:100A280000205DF808FB00BF4DF808EDFFF7E0FF78
:100A380094BF012000205DF808FB00BF4DF808EDC9
:100A4800FFF7CEFF94BF012000205DF808FB00BF30
:100A58004DF808EDFFF7C4FF34BF012000205DF812
:100A680008FB00BF4FEA410212F5001215D211D55A
:100A78006FF47873B3EB625212D94FEAC12343F093
:100A8800004343EA505311F0004F23FA02F018BF15
:100A9800404270474FF00000704750EA013005D1DE
:100AA80011F0004008BF6FF0004070474FF00000A1
:100AB800704700BF4FEA4102B2F1E04324BFB3F5EB
:100AC800001CDCF1FE5C0DD901F0004C4FEAC002BD
:100AD8004CEA5070B2F1004F40EB830008BF20F0A1
:100AE8000100704711F0804F21D113F13872BCBF5B
:100AF80001F00040704741F480114FEA5252C2F1B0
:100B08001802C2F1200C10FA0CF320FA02F018BFF8
:100B180040F001004FEAC1234FEAD32303FA0CFC4B
:100B280040EA0C0023FA02F34FEA4303CCE77FEADA
:100B3800625307D150EA01331EBF4FF0FE4040F424
:100B48004000704701F0004040F0FE4040F40000D3
:100B5800704700BF53B94AB9002908BF00281CBF15
:100B68004FF0FF314FF0FF3000F07AB9ADF1080CCB
:100B78006DE904CE00F006F8DDF804E0DDE90223B3
:100B880004B070472DE9F0478C460D460446089E90
:100B9800002B51D18A4217466DD9B2FA82FEBEF1B6
:100BA800000F0BD0CEF1200C01FA0EF520FA0CFC48
:100BB80002FA0EF74CEA050C00FA0EF44FEA174A4F
:100BC800250CBCFBFAF81FFA87F90AFB18CC45EA92
:100BD8000C4508FB09F3AB420AD9ED1908F1FF32BD
:100BE80080F02381AB4240F22081A8F102083D4405
:100BF800ED1AA4B2B5FBFAF00AFB105544EA054415
:100C080000FB09F9A14509D9E41900F1FF3380F087
:100C18000A81A14540F2078102383C44A4EB09044B
:100C280040EA08400021002E61D024FA0EF4002387
:100C380034607360BDE8F0878B4207D9002E54D02A
:100C4800002186E821000846BDE8F087B3FA83F161
:100C5800002940F08E80AB4202D3824200F2FA8033
:100C6800841A65EB03050120AC46002E3FD086E8C8
:100C78001010BDE8F08712B90127B7FBF2F7B7FAF1
:100C880087FEBEF1000F34D1EB1B3A0C1FFA87FC2C
:100C98000121B3FBF2F8250C02FB183345EA0345A2
:100CA8000CFB08F3AB4207D9ED1908F1FF3002D26B
:100CB800AB4200F2D1808046ED1AA3B2B5FBF2F048
:100CC80002FB105543EA05440CFB00FCA44507D978
:100CD800E41900F1FF3302D2A44500F2B8801846A7
:100CE800A4EB0C0440EA08409DE731463046BDE8D5
:100CF800F087CEF1200405FA0EF307FA0EF720FA72
:100D080004F83A0C25FA04F448EA0308B4FBF2F1B3
:100D18004FEA184502FB11441FFA87FC45EA0445CF
:100D280001FB0CF3AB4200FA0EF409D9ED1901F1FD
:100D3800FF3080F08A80AB4240F2878002393D4420
:100D4800EB1A1FFA88F5B3FBF2F002FB103345EA01
:100D5800034500FB0CF3AB4207D9ED1900F1FF384E
:100D68006FD2AB426DD902383D44EB1A40EA0141DB
:100D78008FE7C1F1200722FA07F88B4005FA01F442
:100D880048EA030320FA07FE4FEA134CFD404EEAF7
:100D9800040EB5FBFCF94FEA1E440CFB19551FFA6B
:100DA80083F844EA054509FB08F4AC4202FA01F26B
:100DB80000FA01FA08D9ED1809F1FF3043D2AC4224
:100DC80041D9A9F102091D442D1B1FFA8EFEB5FB5E
:100DD800FCF00CFB10554EEA054400FB08F8A04552
:100DE80007D9E41800F1FF3529D2A04527D90238E0
:100DF8001C4440EA0940A4EB0804A0FB02894C45C6
:100E0800C6464D4615D312D056B1BAEB0E0364EB65
:100E1800050404FA07F7CB401F43CC4037607460E1
:100E28000021BDE8F0871846F8E69046E0E6C2459E
:100E3800EAD2B8EB020E69EB03050138E4E728466D
:100E4800D7E7404691E78146BEE7014678E7023892
:100E58003C4445E7084608E7A8F102083D442BE76B
:100E6800704700BF38B50E4A0E4B054618784FF448
:100E78007A73B3FBF0F31068B0FBF3F000F096F868
:100E8800044658B90F2D09D8024629464FF0FF30BD
:100E980000F04AF8044B20461D6038BD012038BDDB
:100EA80048000020000000200400002008B50B4B7B
:100EB8001A6842F400721A601A6842F480621A6072
:100EC8001A6842F480721A60032000F01BF80020B0
:100ED800FFF7C8FF02F0B6F8002008BD003C02404A
:100EE800034A044B11681B780B441360704700BF1A
:100EF800A800002000000020014B1868704700BFC0
:100F0800A8000020074AD36823F4E0631B041B0CE5
:100F180043F0BF63000243F4003300F4E06003438E
:100F2800D360704700ED00E0174B30B5DC68C4F3C0
:100F38000224C4F10703251D042B28BF0423062D12
:100F48004FF0010505FA03F303F1FF338CBF033CAF
:100F580000241940A14005FA04F4013C224000286D
:100F680042EA01024FEA0212ADBF00F1604000F010
:100F78000F00064B00F56140B5BFD2B2D2B21A5489
:100F880080F8002330BD00BF00ED00E014ED00E064
:100F9800002808DB4209012300F01F0003FA00F0D3
:100FA800014B43F82200704700E100E00138B0F13E
:100FB800807F0AD2064B074A5860F02182F8231036
:100FC8000020072298601A6070470120704700BF10
:100FD80010E000E000ED00E00368DAB223F47F736C
:100FE80023F003031821103AB2FBF1F20449032A53
:100FF80088BF0433895C8365C165806D704700BF15
:101008004844000870B50446FFF776FF0546002CF3
:1010180071D0002384F834302268022384F83530F4
:10102800136823F00103136021680B68D8073CD4C8
:101038000B68324D6268A0691D40A3681343E268DB
:1010480013432269134362691343E2690343134359
:10105800226A1343626A042A43EA050301BF266B26
:10106800E56A35432B430B604B69042A23F00703D9
:1010780043EA02030BD1A26AE56A13433DB1F8B90A
:10108800012A2DD001D3022A01D1EA012BD44B61C8
:101098002046FFF7A1FFE26D3F23934083600020C5
:1010A8000123606584F8353070BDFFF725FF401BCC
:1010B8000528B9D920236365032084F8350070BD5D
:1010C800B0F5005F13D1032AE1D801A050F822F04F
:1010D800EF10000893100008EF100008E91000084E
:1010E800B5F1C07FD3D1402363650120E5E7022A2B
:1010F800F9D9032AC8E7012070BD00BF3F8010F06E
:1011080070B590F83440012C32D0012480F8344076
:1011180090F83540866D012C4FF000054FF0020421
:1011280024D180F8354004684565256825F4802574
:10113800256063608368402B0EBFA260A160E260F7
:10114800C26D08BFE1603F239340B360236843F05A
:1011580016032360036C1BB1236843F00803236064
:10116800236843F001032360002070BD80F83450E9
:10117800022070BD70B50446856DFFF7BDFE94F87A
:101188003530022B064606D080236365002384F899
:101198003430012070BD23681A6822F016021A60E4
:1011A8005A6922F080025A61226C0AB9A26C1AB1FB
:1011B8001A6822F008021A601A6822F001021A60FE
:1011C8002368186810F0010009D1E26D3F239340AD
:1011D800AB60012384F8340084F8353070BDFFF724
:1011E8008BFE801B0528EBD9202363650320002391
:1011F80084F8343084F8350070BD90F83530022B0F
:1012080003D080234365012070470268052380F8D6
:101218003530136823F00103136000207047000085
:10122800F7B5002301935A4B856D1F68C36D2E686F
:1012380008229A40164204460CD001680868400704
:1012480008D5086820F004000860AA60626D42F0C2
:101258000102626501229A40164208D02168496954
:10126800090641BFAA60626D42F00202626504226B
:101278009A40164208D021680968880741BFAA60C9
:10128800626D42F00402626510229A40164210D044
:101298002368196809070CD5AA601A68500335D560
:1012A8001B68190301D4236C00E0A36C0BB1204622
:1012B8009847E16D20228A40164238D02368186882
:1012C800C60634D5AA6094F83520052A1A6825D1AF
:1012D80022F016021A605A6922F080025A61226CC2
:1012E8000AB9A26C1AB11A6822F008021A603F23E0
:1012F8008B40AB60002384F83430012384F8353008
:10130800236D0BB12046984703B0F0BD1A68D2058B
:101318005EBF1A6822F008021A60C4E7500328D595
:101328001B68190332D4636C0BB120469847636D70
:10133800002BE9D0636DDA0719D50523226884F8F4
:101348003530136823F0010313604FF41653B7FBCD
:10135800F3F7019B01339F42019302D31368DB0724
:10136800F7D4002384F83430012384F83530E36C53
:10137800C7E71A6812F4807208D1196821F01001C1
:101388001960012384F8342084F83530E36BCBE707
:1013980048000020406D70472DE9F04F85B00B687C
:1013A800DFF8AC81684ADFF8AC910193002301248F
:1013B800019D9C402540AC4240F0B0804C6824F030
:1013C800100C0CF1FF36012E4FEA430E12D8876835
:1013D800032606FA0EF627EA0607CE6806FA0EF680
:1013E8003E4386604768C4F3001627EA05079E4017
:1013F8003E4346600326C76806FA0EF6F64307EA38
:10140800060A8F6807FA0EF747EA0A07BCF1020FC7
:10141800C76016D14FEAD30A00EB8A0A03F0070B1C
:10142800DAF820704FEA8B0B4FF00F0C0CFA0BFC1C
:1014380027EA0C0C0F6907FA0BF747EA0C07CAF8FA
:10144800207007683E4004F0030707FA0EFE4EEAD4
:1014580006060660E60061D54FF0000BCDF80CB02B
:10146800D8F84470394E47F48047C8F84470D8F823
:10147800447007F480470397039F23F0030707F19D
:10148800804707F59C3703F0030CD7F808A04FEA0C
:101498008C0C4FF00F0E0EFA0CFEB0422AEA0E0E1C
:1014A80043D006F58066B04241D006F58066B0426A
:1014B8003FD006F58066B0423DD006F58066B04262
:1014C8003BD048453BD006F50066B04239D006F51A
:1014D8008066B04214BF0826072606FA0CF646EACC
:1014E8000E06BE601668EF4314F4803F0CBF3E4002
:1014F8002E431660566814F4003F0CBF3E402E433E
:101508005660966814F4801F0CBF3E402E439660C8
:10151800D668A40254BF3E402E43D6600133102B38
:101528007FF445AF05B0BDE8F08F5E46D5E70126EC
:10153800D3E70226D1E70326CFE70426CDE7052621
:10154800CBE70626C9E700BF003C01400000024087
:1015580000380240001402400AB181617047090452
:10156800FBE7436931EA030308BF09048161704757
:101578002DE9F341044608B901203FE00368DD077F
:1015880010D4236898075AD423681A0700F19C805E
:1015980023685B0700F1BA80A069002840F01B812E
:1015A80000202BE0A44B9A6802F00C02042A07D012
:1015B8009A6802F00C02082A0AD15B68590207D51A
:1015C8009D4B1B689A03DCD56368002BD9D1D3E700
:1015D8006368994DB3F5803F13D12B6843F480338A
:1015E8002B60FFF789FC944D06462B689B03C8D4F3
:1015F800FFF782FC801B6428F7D9032002B0BDE8FE
:10160800F081B3F5A02F04D12B6843F480232B601D
:10161800E3E72A6822F480322A602A6822F48022CA
:101628002A60002BDDD1FFF767FC06462B689F0375
:10163800A7D5FFF761FC801B6428F7D9DDE77E4B4F
:101648009A6812F00C0F07D09A6802F00C02082A68
:1016580011D15B685E020ED4774B1A68950702D5E4
:10166800E268012A88D11A68216922F0F80242EA60
:10167800C1021A6088E7E268704BB2B101221A60B1
:10168800FFF73AFC6C4D06462B68980707D52B6880
:10169800226923F0F80343EAC2032B6074E7FFF7DB
:1016A8002BFC801B0228EFD9A7E71A60FFF724FC60
:1016B800614D06462B6899077FF566AFFFF71CFC5E
:1016C800801B0228F6D998E762695D4B7AB101223E
:1016D8001A60FFF711FC584D06466B6F9F073FF5E0
:1016E80057AFFFF709FC801B0228F6D985E71A6077
:1016F800FFF702FC504D06466B6F98077FF548AF21
:10170800FFF7FAFB801B0228F6D976E74A4B1A6CDA
:1017180012F0805228D101921A6C42F080521A6459
:101728001B6C03F080530193019B0126454D2B68E8
:10173800D9051BD5A368404D012B27D12B6F43F04A
:1017480001032B67FFF7D8FB3B4D074641F288386A
:101758002B6F9B0739D5002E3FF41EAF364A136C0A
:1017680023F08053136417E70026DFE72B6843F460
:1017780080732B60FFF7C0FB07462B68DA05D9D4C6
:10178800FFF7BAFBC01B0228F7D936E7052B04D1AF
:101798002B6F43F004032B67D0E72A6F22F0010276
:1017A8002A672A6F22F004022A67002BCAD1FFF7A2
:1017B800A3FB41F2883807462B6F9807CBD5FFF774
:1017C8009BFBC01B4045F7D917E7FFF795FBC01BEC
:1017D8004045BDD911E7184DAB6803F00C03082B41
:1017E80047D0194E00230228336035D1FFF784FB18
:1017F80007462B68990129D4226AE3691343626A70
:1018080043EA8213E26A43EA0263A26A0A4C520874
:10181800013A43EA02436B6001233360FFF76CFB34
:10182800054623689A013FF5BBAEFFF765FB401BF1
:101838000228F6D9E1E600BF00380240000047421E
:10184800800E47420070004060004742FFF754FB9B
:10185800C01B0228CDD9D0E6FFF74EFB04462B6803
:101868009B017FF59DAEFFF747FB001B0228F6D9C9
:10187800C3E601283FF4C2AE6868E36900F4800259
:101888009A427FF479AE226A00F03F0393427FF4D4
:1018980073AE626A47F6C073034093427FF46CAE3E
:1018A800A26A00F4403393427FF466AEE36A00F024
:1018B8007060C01A18BF0120A0E600BF134908B520
:1018C8008B6803F00C03042B03D0082B03D01048BB
:1018D80008BD104808BD4A684B68496813F480037E
:1018E80014BF0C480A48C1F3881118BF002302F03E
:1018F8003F02A1FB0001FFF72DF9044B5B68C3F31E
:10190800014301335B00B0FBF3F008BD003802402F
:101918000024F40000127A002DE9F0410D46044637
:1019280010B90120BDE8F081444B1A6802F00F029B
:101938008A4229D321688F072ED4C80741D43F4B48
:101948001A6802F00F02954267D3226851076DD4D6
:10195800130707D53A4A2169936823F4604343EA99
:10196800C1039360FFF7AAFF354B364A9B68C3F360
:101978000313D35CD840344B1860344B1868FFF716
:1019880071FA0020BDE8F081CAB21A701B6803F032
:101998000F039942C5D1CDE7294B11F0040F1EBFA3
:1019A8009A6842F4E0529A600E0742BF9A6842F47D
:1019B80060429A609A68A06822F0F00202439A6036
:1019C800BBE762681E4B012A1DD11B6813F4003F58
:1019D800A7D01B4EB36823F003031343B360FFF78C
:1019E8008BFA41F288380746B368626803F00C0343
:1019F800B3EB820FA3D0FFF77FFAC01B4045F3D9A2
:101A08000320BDE8F081911E01291B6802D813F05C
:101A1800007FDDE713F0020FDAE7EAB21A701B68FD
:101A280003F00F039D427FF47CAF8EE70449E06822
:101A38008B6823F4E05303438B6089E7003C024042
:101A480000380240504400084800002004000020EC
:101A5800044B054A9B68C3F38223D35C034A10688E
:101A6800D840704700380240604400084800002011
:101A7800044B054A9B68C3F34233D35C034A10689E
:101A8800D8407047003802406044000848000020F1
:101A98000368DA6842F00102DA609A6802F0070225
:101AA800062A1EBF1A6842F001021A600020704719
:101AB800036889B1042907D01A6A22F001021A6260
:101AC8001A6A42F001021A621A6A22F010021A62B5
:101AD8001A6A42F0100206E01A6A22F001021A623B
:101AE8001A6A42F001021A621A6842F001021A6088
:101AF80000207047704770477047704703681A693D
:101B0800910710B504460ED5DA6892070BD56FF029
:101B180002021A619B6901229B07027777D0FFF7BF
:101B2800EAFF0023237723681A69500710D5DA687B
:101B380051070DD56FF004021A619B69022213F454
:101B4800407F2277204668D0FFF7D5FF0023237710
:101B580023681A6912070FD5DA6810070CD56FF0D9
:101B680008021A61DB6904229907227720465AD0B5
:101B7800FFF7C1FF0023237723681A69D20610D51F
:101B8800DA68D0060DD56FF010021A61DB690822F9
:101B980013F4407F227720464BD0FFF7ACFF002399
:101BA800237723681A69D10708D5DA68D20705D5DB
:101BB8006FF001021A61204600F022FF23681A69BB
:101BC800100608D5DA68110605D56FF080021A618B
:101BD800204600F044F923681A69520608D5DA68E5
:101BE800500605D56FF040021A612046FFF785FFC1
:101BF80023681A69910622D5DA6892061FD56FF014
:101C0800200220461A61BDE8104000F027B9FFF70E
:101C180071FF2046FFF770FF83E7FFF76BFF204651
:101C2800FFF76AFF92E7FFF765FF2046FFF764FFBB
:101C3800A0E7FFF75FFF2046FFF75EFFAFE710BDA5
:101C4800304A0368904212D0B0F1804F0FD0A2F50D
:101C58007C4290420BD002F58062904207D002F598
:101C68008062904203D002F57842904219D14A68C6
:101C780023F070031343234A904229D0B0F1804FD8
:101C880026D0A2F57C42904222D002F58062904292
:101C98001ED002F5806290421AD002F57842904236
:101CA80016D0194A904213D002F5806290420FD0A4
:101CB80002F5806290420BD0A2F59832904207D08C
:101CC80002F58062904203D002F58062904203D10F
:101CD800CA6823F4407313434A6923F0800313430B
:101CE80003608B68C3620B688362064B984203D01B
:101CF80003F58063984201D10B69036301234361B3
:101D0800704700BF000001400040014010B5044684
:101D1800A0B190F83D3003F0FF021BB980F83C20D9
:101D280001F040FB022384F83D302068211DFFF7B5
:101D380087FF012384F83D30002010BD012010BD2D
:101D4800F8B50C460546002843D090F83D3003F01E
:101D5800FF021BB980F83C2001F0D0FA2946022383
:101D680051F8040B85F83D30836823F4804323F051
:101D780007038360FFF764FF286823688668826921
:101D8800A168076A1E43A36922F4407222F0030285
:101D980041EA0323134323F47C422369E1691B01CD
:101DA80043EA0123E1680B43216A22F0FC0243EA7B
:101DB80001331343616927F0AA026768866047EA1E
:101DC8000117836117430123076285F83D3000201E
:101DD800F8BD0120F8BD000090F83C30012B30B56B
:101DE8004FF0020335D080F83D3003680D685C6819
:101DF80024F0700401222C4380F83C209A685C602F
:101E0800154CA3421AD0B3F1804F17D0A4F57C44E7
:101E1800A34213D004F58064A3420FD004F5806474
:101E2800A3420BD004F57844A34207D004F57054BC
:101E3800A34203D0A4F59434A34204D1496822F004
:101E480080020A439A60012380F83D30002380F81D
:101E58003C30184630BD00BF000001407047704755
:101E68000368DA6822F49072DA605A6922F0010293
:101E78005A61202380F83A307047000038B503686B
:101E8800C1681A69044622F440520A431A61256956
:101E9800A268D968C0692A43656921F416412A43B2
:101EA80021F00C0102430A43DA605A69A16922F45D
:101EB80040720A43B0F5004F5A61254A29D193422E
:101EC80003D002F58062934220D1FFF7D1FD62680A
:101ED800256892184FF000034FF019015B41A0FBF1
:101EE8000101FEF737FE6421B0FBF1F401FB140396
:101EF800DB003233B3FBF1F303F007025B0002EBC4
:101F0800041203F4F8731344AB6038BDFFF7A0FD67
:101F1800DDE7934202D00F4A934216D1FFF7A8FD9E
:101F28006368256819219A00A0FB01019B0FFEF741
:101F380011FE6422B0FBF2F102FB11031B013233E4
:101F4800B3FBF2F303EB0113DEE7FFF781FDE7E7ED
:101F5800001001400014014010B5044640B390F849
:101F6800393003F0FF021BB980F8382001F0C0FABD
:101F78002268242384F83930D36823F40053D360CB
:101F88002046FFF77BFF23681A6922F490421A6102
:101F98005A6922F02A025A61DA6842F40052DA6079
:101FA80000202023E06384F8393084F83A3010BDEB
:101FB800012010BD90F83A30202B20D1E9B1E2B1D0
:101FC80090F83830012B1AD0C2858285002322224E
:101FD800C36380F83A2002688162D16880F838309B
:101FE80041F48071D160516941F001015161D168BA
:101FF80041F02001D1601846704701207047022047
:102008007047000038B50446134694F83920202A52
:102018002AD139B333B394F83820012A24D00122C5
:1020280084F83820206BE38400252122E56384F8B6
:1020380039200E4AA3842162C2630D4A02640D4A04
:10204800C264226805650432FFF75AF823686FF006
:1020580040021A605A6984F8385042F080025A6186
:10206800284638BD012038BD022038BD612100084E
:102078008F21000857220008134690F83A20202A9A
:1020880073B5054638D1002934D0002B32D090F8EA
:102098003820012A30D00122002480F8382022225A
:1020A800C4638162838580F83A20406B134AC26317
:1020B8002E68134A0264134AC26404650A46311D35
:1020C800FFF71EF82B6801941A6801925A6801926A
:1020D800019ADA6885F8384042F48072DA605A6901
:1020E80042F001025A615A6942F040025A612046A0
:1020F80002B070BD0120FBE70220F9E79921000832
:102108004D220008572200080368DA6822F490720A
:1021180010B5DA605A6922F001025A615A6952060A
:10212800044613D55A69406B22F040025A6168B1DF
:1021380000230365FFF71EF840B1606BFFF72AF92B
:10214800202803D11023E363032010BD002020239F
:10215800E08584F83A3010BD08B50368826B1B68C7
:1021680013F480730AD1D38413685A6922F0800269
:102178005A61DA6842F04002DA6008BD104600F0A1
:10218800EFFC08BD704708B5806BFFF7FBFF08BD83
:1021980008B50368826B1B6813F4807310D1D3856C
:1021A8001368D96821F48071D960596921F0010157
:1021B8005961596921F040015961202382F83A3068
:1021C800104600F075FD08BD90F83A30222B10B586
:1021D80036D1836801690268B3F5805F836A23D1C9
:1021E8005268E9B9C2F3080223F8022B8362C48D4E
:1021F800013CA4B2C4858CB90368DA6822F02002D5
:10220800DA60DA6822F48072DA605A6922F0010230
:102218005A61202380F83A3000F04AFD002010BDB2
:10222800D2B223F8012BE1E721B9591C5268816227
:102238001A70DCE75268591C816202F07F02F7E7E6
:10224800022010BD08B5806B00F0C4FC08BD816B8E
:1022580008B50B685A6991F8390021280AD1120685
:1022680008D50022CA84DA6822F0C002DA60202287
:1022780081F839205B6991F83A20222A06D15B0659
:1022880004D50023CB850846FFF7EAFDCB6B43F066
:102298001003CB63084600F0BDFC08BD03681A684C
:1022A800D96870B5160704465D6907D196065CD5EE
:1022B8008D065AD5BDE87040FFF786BF15F00105B9
:1022C80002D111F4907F50D0D00705D5CB0542BF7D
:1022D800E36B43F00103E363560704D51DB1E36BD9
:1022E80043F00203E363900704D51DB1E36B43F0A9
:1022F8000403E363130706D58E0600D41DB1E36B10
:1023080043F00803E363E36B002B66D0950604D51E
:10231800880602D52046FFF757FF23685D69E26B00
:102328001107204602D415F040051AD0FFF798FD92
:1023380023685A69520610D55A69606B22F0400228
:102348005A6150B1254B0365FEF757FF002844D06A
:10235800606BBDE87040036D1847204600F05AFCDA
:1023680070BD00F057FCE56370BD160627D50D0655
:1023780025D594F83920212A2FD1A268B2F5805F9B
:10238800226A17D11188C1F308015960216979B906
:1023980002322262E28C013A92B2E284EAB9DA6845
:1023A80022F08002DA60DA6842F04002DA6070BD3A
:1023B8000132EEE7511C216212785A60EAE75006B2
:1023C8000BD54A0609D5DA6822F04002DA602023E4
:1023D80084F83930204600F0C3FB70BDE9230008BB
:1023E80008B5806B0023C385C38400F013FC08BDC7
:1023F800704700000368DA6822F4907210B5DA605A
:102408005A6922F001025A615A6912F040020446E0
:1024180017D05A6922F040025A61436B53B10A4AF5
:102428001A651846FEF7E9FE10B1606B036D984710
:10243800002010BDC385202384F83A30FFF7D8FF69
:10244800F6E7C285F7E700BF5524000808B5806B9A
:102458000023C385202380F83A30FFF7C9FF08BD61
:1024680013B52C4B002400941A6B42F480021A63B3
:102478001A6B02F480020092009A01941A6B42F4DB
:1024880000121A631B6B03F40013224621460193C2
:102498000C20019BFEF748FD0C20FEF779FD224633
:1024A80021460E20FEF740FD0E20FEF771FD224664
:1024B80021461020FEF738FD1020FEF769FD224660
:1024C80021461120FEF730FD1120FEF761FD22465E
:1024D80021463920FEF728FD3920FEF759FD22460E
:1024E80021463A20FEF720FD3A20FEF751FD22460C
:1024F80021464520FEF718FD4520FEF749FD2246F6
:1025080021464620FEF710FD4620FEF741FD02B0A9
:1025180010BD00BF00380240F0B58DB01422002174
:1025280007A801F011FA00242F4B01941A6B2F4FC2
:102538002F4E42F010021A631A6B02F01002019239
:10254800019A02941A6B42F080021A631A6B02F025
:1025580080020292029A03941A6B42F001021A63F3
:102568001A6B02F001020392039A04941A6B42F068
:1025780002021A631A6B02F002020492049A05948A
:102588001A6B42F008021A631A6B02F008020592ED
:10259800059A06941A6B42F004021A631B6B03F047
:1025A80004030693224638460421069BFEF7D4FF0F
:1025B800224630464FF44051FEF7CEFF0125042352
:1025C80007A938460793089509950A94FEF7E4FE8B
:1025D8004FF4405307A930460793089509940A9485
:1025E800FEF7DAFE0DB0F0BD0038024000100240E0
:1025F800000C0240294A2A49D37803F001000870E8
:102608002849C3F3400008702749C3F380000870C5
:102618002649C3F3C00008702549C3F300100870A9
:102628002449C3F3401008702349C3F3801008708D
:102638002249DB090B701379214903F00100087066
:102648002049C3F3400008701F49C3F38000087095
:102658001E49C3F3C00008701D49C3F30010087079
:102668001C49C3F3401008701B49C3F3801008705D
:102678001A49DB090B705379FF2B194B0BD1917950
:10268800FF2908D1D179FF2905D1127AFF2A02D171
:1026980001221A7070470022FBE700BF19000020D2
:1026A800170000201200002015000020180000204C
:1026B800090000200D0000200A0000200E00002064
:1026C800110000201400002010000020130000203A
:1026D800160000200B0000200C0000200F00002036
:1026E8000800002010B56D496D4BCA79087A6D4C09
:1026F8007F3A12B21A806C4BC0F17F0018804B7978
:1027080089797F3B1BB22380684CC1F17F0121800E
:10271800674C2478002C40F0B98012F1180F1DDBAB
:10272800182A32DC634A148010F1180F3BDB182892
:1027380051DC614A0020108013F1180F5ADB182B66
:102748006FDC5E4B00221A8011F1180F77DB182915
:1027580000F38D805A4B00221A8010BD12F1190F18
:10276800E2D0193207EE902ADFED566AB8EEE77A22
:10277800C7EE267A9FED547A4E4C67EE277AFDEE27
:10278800E77A17EE902A2280CEE7192ACCDD193A8B
:1027980007EE902ADFED4D6AF8EEE77A87EEA67A23
:1027A800DFED4B7AE8E710F1190FC5D000F11902F7
:1027B80007EE102ADFED436AB8EEC77AC7EE267A2D
:1027C8009FED417A3C4867EE277AFDEEE77A17EEEF
:1027D800902A0280B0E71928AEDDA0F1190207EEB1
:1027E800902ADFED3A6AF8EEE77A87EEA67ADFED0F
:1027F800387AE7E713F1190FA6D0193307EE903AA4
:10280800DFED306AB8EEE77AC7EE267A9FED2E7ACA
:102818002A4A67EE277AFDEEE77A17EE903A138098
:1028280092E7192B90DD193B07EE903ADFED276A06
:10283800F8EEE77A87EEA67ADFED257AE8E711F178
:10284800190F13D001F1190307EE103ADFED1D6AD5
:10285800B8EEC77AC7EE267A9FED1B7A67EE277A1D
:10286800FDEEE77A17EE903A154A138010BD192944
:10287800FCDDA1F1190307EE903ADFED146AF8EEDA
:10288800E77A87EEA67ADFED127AE7E7094A0023AE
:102898001380094A1380094A1380E5E719000020CC
:1028A800B4000020B2000020AC000020B0000020DE
:1028B800080000206C000020700000206E0000203E
:1028C800720000200000CCC20000FEC20000CC4212
:1028D8000000FE4230B595B03022002108A801F072
:1028E80033F80021142203A801F02EF800241D4B10
:1028F80001941A6C42F080521A641B6C03F08053E6
:102908000193019B184B02941A6842F480421A60A2
:102918001B6803F480430293029B012308934FF43E
:10292800803309934FF480030F93082310934FF4D7
:10293800A8730225119308A8072313930E951295DF
:10294800FEF716FE0F2303934FF4A05306930521B9
:102958004FF4805303A8049505940793FEF7DCFF12
:1029680015B030BD003802400070004008B5FEF7D1
:102978009DFAFFF7AFFFFFF7CFFDFFF771FD00F0FE
:1029880019FC00F045FC00F071FC00F093FC00F02D
:102998003FFD00F059FD00F073FD00F08DFD0F487C
:1029A800FFF776F80E48FFF773F80E4B0E481A68D3
:1029B800D36843F02003D3603C21FFF779F83C212A
:1029C8000A48FFF775F8172209490A48FFF71AFB62
:1029D800072209490948FFF74FFBFEE78805002051
:1029E800C80500207C0400200805002048050020B8
:1029F80022000020C4040020BC040020FC030020A6
:102A08000268474B9A422DE9F0417FD1454B1A782D
:102A1800454B02B91A70454A12780AB901221A7050
:102A28001B787BBB424BDFF834811A78414E424B0E
:102A3800424F434C434D002A5FD0B3F90000FDF7E5
:102A480011FD33A3D3E90023FDF772FDFEF70AF861
:102A5800A8F80000B7F90000FDF704FD2CA3D3E99E
:102A68000023FDF765FDFDF7FDFF3080B5F9000097
:102A7800FDF7F8FC28A3D3E90023FDF759FDFDF77E
:102A8800F1FF2080304D2F78012F1DD12F4CB4F944
:102A98000030002B14DD2E4EB6F900305A1C32805F
:102AA8002C4AB2F900209A420AD1002204212A486D
:102AB800FEF752FD002333802B702388013B2380CF
:102AC800BDE8F04100F060B9002FF9D11F4CB4F90E
:102AD8000030012BF4DD1E4EB6F900305A1C32804E
:102AE8001C4AB2F900209A42EAD1012204211A486C
:102AF800FEF732FD37800123DEE71B88A8F8003097
:102B08003B8833802B885B422380BBE7BDE8F0819C
:102B1800A4703D0AD7A3D83FA4703D0AD7A3D8BF55
:102B2800001000400C0000200405002018000020C0
:102B380013000020800000206C000020700000209E
:102B48003A0000206E0000207A0000207800002063
:102B5800760000207C000020001002407E0000204B
:102B68000268124B9A421FD1114B12491B68C1F8D7
:102B78000330114B11481B68C1F80730104B1B6814
:102B8800C1F80B300F4B1B88A1F80F300E4B1B8878
:102B9800A1F811300D4B1B88A1F813300C4B1B7892
:102BA8004B751722FFF72EBA704700BF004400404C
:102BB80090000020220000209C000020C404002077
:102BC8003C0000207E000020800000203A00002009
:102BD8000405002008B502680B4B9A4213D10B4B31
:102BE8001A78692A05D15A78742A02D19B78732BEE
:102BF80009D00748FFF788FA072204490448BDE8C6
:102C08000840FFF739BA08BD00100140BC04002095
:102C1800FC03002002680F4B9A4210B5044604D109
:102C280007220D490D48FFF727FA22680C4B9A42F4
:102C380004D117220B490C48FFF7E4F922680B4B23
:102C48009A4206D109220A490A48BDE81040FFF70E
:102C580013BA10BD00100140BC040020FC03002082
:102C68000044004022000020C40400200014014059
:102C7800190000207C040020084B012210B41A70AF
:102C8800074B00241C80074B5DF8044B1880064B4B
:102C98000648914019800421FEF75EBC7A000020A6
:102CA800760000207C000020780000200010024000
:102CB80038B50268274B9A4205462BD1264C236823
:102CC800142B06DD4FF400512448FEF74AFC00237C
:102CD8002360236801332360214C23782BB91E21FC
:102CE8000846FFF7C9FF012323701E4C2378692B80
:102CF8002CD16378742B29D1A378732B26D11A4B46
:102D0800D4F803201A6000F0F3F807222146174888
:102D1800FFF7B2F92A68164B9A421AD1FFF76AFCF4
:102D2800FFF7E0FC134B1A680AB901221A6012482F
:102D3800FEF763FA114912480122FFF73BF94FF4F5
:102D480080510648BDE83840FEF70BBC072205490C
:102D5800DDE738BD0010014084000020000C02406F
:102D68008C000020BC04002088000020FC03002008
:102D7800001401406800002018010020AE00002067
:102D88007C04002070470000D0B5514A536A0021E6
:102D98001BB22DED068B07EE903A51624D4BA2F512
:102DA80080621868546A5162F8EEE78AFDF76CFB96
:102DB80041A3D3E9002306460F46FDF707FAFDF7BE
:102DC80079FE00EE100A0AEE100A24B200F0C4FDE3
:102DD80007EE904A3AA3D3E9002330463946B8EEC5
:102DE800E78AF0EE40AAFDF7F1F9FDF763FE00EE81
:102DF800100A09EE900A00F0AFFDB0EE409AB0EE6E
:102E08004A0A00F0E9FD28EE099AB0EE40AAA8EEB9
:102E1800AA9A314CB0EE690A00F0DEFD19EE100AEC
:102E2800F0EE409AFDF730FB27A3D3E90023FDF726
:102E38007FFB064620680F46FDF726FB28EE298A09
:102E480002460B4630463946FDF7C0F9A8EE8A8A95
:102E5800FDF730FE206009EE100A18EE100AFDF7A3
:102E680013FB19A3D3E90023FDF762FB1B4C0646AD
:102E780020680F46FDF708FB0B46024639463046E8
:102E8800FDF7A4F9FDF716FE154B206093ED007AC7
:102E9800144B39EE479A07EE900A83ED009A124BCD
:102EA800BDEC068B93ED007A104B77EEC77AC3ED35
:102EB800007AD0BDAFF300807A008BFCFA21E93F9D
:102EC800444C89247AD90240C6374EE9E435A43FF8
:102ED800000800404400002094000020A0000020CA
:102EE8009800002090000020A40000209C000020F2
:102EF8002DE9F0474C4B4D4E4D4C2DED028B93ED8B
:102F0800008A4C4BD3ED007A38EE678A86ED008A4A
:102F180018EE100AFDF7B8FA3BA3D3E90023FDF732
:102F280007FBFDF7C7FDDFED447A9FED447A20608B
:102F3800054600223346B4EEE78AF1EE10FA40DC8B
:102F48000AB183ED008AD3ED007A9FED3D7ADFED7B
:102F58003B6A0022F4EEC77AF1EE10FA35D40AB1D2
:102F6800C3ED007A0FF2A809D9E900894FF0000AE9
:102F78002846FDF789FA28A3D3E9002306460F4619
:102F8800FDF766FD28BBBAF1000F00D025600FF2EF
:102F98008009D9E9008925684FF0000A2846FDF71D
:102FA80073FA1FA3D3E9002306460F46FDF732FD47
:102FB800D8B9BAF1000F00D02560BDEC028BBDE88E
:102FC800F08738EE478A0122B5E777EEA67A012224
:102FD800C0E742464B4630463946FDF7F5F8FDF75F
:102FE80069FD4FF0010A0546C2E742464B463046A6
:102FF8003946FDF7EBF8FDF75DFD4FF0010A054690
:10300800CCE700BFAFF3008011DD52A246DF913F4D
:10301800EA2E4454FB211940EA2E4454FB2109406E
:10302800EA2E4454FB2109C0400000203C00002047
:103038004400002088000020000034430000B4430E
:10304800000034C307B50E4B002100915A6C42F4BE
:1030580080425A645A6C02F480420092009A0191AC
:103068001A6C42F080521A641B6C03F0805301936F
:103078000720019BFDF746FF03B05DF804FB00BF86
:10308800003802407047FEE7FEE7FEE7FEE77047BC
:1030980070477047FDF724BF0148FEF7C1B800BF6D
:1030A800780100200148FEF7BBB800BF18020020D5
:1030B8000148FEF7B5B800BFB80000200148FEF788
:1030C800AFB800BF9C0300200148FFF7E7B800BF76
:1030D800FC0300200148FFF7E1B800BFC40400204A
:1030E8000148FFF7DBB800BFD80100200148FEF710
:1030F80005BD00BF880500200148FEF7FFBC00BFE2
:10310800C80500200148FEF78BB800BF1801002051
:103118000148FEF785B800BF3C0300200148FEF7D0
:103128007FB800BFDC0200200148FEF779B800BF75
:103138007C02002010B5144C1448FFF7AFF8214664
:1031480001221248FEF736FF2378114C692B04D16F
:103158002378B3B90123237010BD742B04D12378CD
:10316800012B0ED10223F6E7732B0AD12378022B09
:1031780007D10648FFF73EF9062206490348FEF73D
:103188007BFF0023E7E700BFAE0000207C0400209F
:10319800740000201C000020054BD3F8882042F45E
:1031A8007002C3F888204FF000629A60704700BF31
:1031B80000ED00E010B58CB00021242203A800F037
:1031C800C3FB1148114B002480E818004FF6FF7329
:1031D800C3600323039303A9012301940294846029
:1031E8000461846105930993FEF7AAFD08B1FFF70E
:1031F800C9FD01A9044801940294FEF7EDFD08B148
:10320800FFF7C0FD0CB010BD4805002000040040C9
:1032180010B58CB00021242203A800F095FB1148BA
:10322800114B002480E818004FF6FF73C360032396
:10323800039303A9012301940294846004618461C7
:1032480005930993FEF77CFD08B1FFF79BFD01A9E3
:10325800044801940294FEF7BFFD08B1FFF792FD00
:103268000CB010BD080500200008004013B50F4A37
:103278000F485323002480E80C0040F2E733009401
:1032880001948460C3608461FEF740FD08B1FFF7D4
:1032980079FD2023694606488DE81800FEF79CFD55
:1032A80008B1FFF76FFD02B010BD00BF001000406D
:1032B8008805002013B50F4A0F4840F28F63002499
:1032C80080E80C0040F2E733009401948460C36006
:1032D8008461FEF71BFD08B1FFF754FD2023694602
:1032E80005488DE81800FEF777FD08B1FFF74AFD9D
:1032F80002B010BD00140040C805002010B514220B
:103308008AB0044600210DEB020000F01DFB236883
:10331800204A934223D1204B002101911A6C42F09C
:1033280002021A641A6C02F002020192019A0291D6
:103338001A6B42F002021A631B6B03F0020302933A
:10334800029B30230593122306930123079305A9B3
:10335800022312480993FEF71FF80AB010BD104A5D
:103368009342FAD10C4B002103911A6C42F00402EB
:103378001A641A6C02F004020392039A04911A6BFD
:1033880042F002021A631B6B03F002030493049BCE
:10339800C023D7E700040040003802400004024080
:1033A8000008004007B50368164A934215D1002269
:1033B800154B0092196C41F0100119641B6C03F055
:1033C8001003009336201146009BFDF7ADFD362013
:1033D800FDF7DEFD03B05DF804FB0C4A9342F9D11A
:1033E8000022094B0192196C41F0200119641B6CF1
:1033F80003F02003019337201146019BFDF794FD4C
:103408003720E5E700100040003802400014004073
:1034180008B50B480B4B4FF4E13E80E808400C22FE
:1034280000238360C360036142618361C361FEF767
:1034380093FD18B1BDE80840FFF7A4BC08BD00BF64
:10344800FC0300200010014008B50B480B4B4FF45B
:10345800E13E80E808400C2200238360C3600361DA
:1034680042618361C361FEF777FD18B1BDE808408A
:10347800FFF788BC08BD00BFC4040020004400401A
:1034880008B50B480B4B4FF4E13E80E808400C228E
:1034980000238360C360036142618361C361FEF7F7
:1034A8005BFD18B1BDE80840FFF76CBC08BD00BF64
:1034B800D80100200048004008B50B480B4B4FF4DA
:1034C800164E80E808400C2200238360C360036125
:1034D80042618361C361FEF73FFD18B1BDE8084052
:1034E800FFF750BC08BD00BF7C0400200014014059
:1034F8002DE9F04304468FB01422002109A800F0FA
:1035080023FA23689F4A934260D100269E4B009677
:103518005A6C9E489E4D42F010025A645A6C02F052
:1035280010020092009A01961A6B42F001021A6387
:103538001B6B03F001030193019B4FF4C0630993D4
:1035480002230A9301230B9303230C9309A907234E
:103558000D93FDF721FF8F4BAE604FF0006E85E8AD
:10356800084028464FF48063EE602B616E61AE61BF
:10357800EE612E626E62FDF745FD08B1FFF702FCB1
:103588006563854BAC63854D4FF00066402785E841
:10359800C8004FF4806200232846EB602A616B6103
:1035A800AB61EB612B626B62FDF72CFD08B1FFF795
:1035B800E9FB0022256325201146AC63FDF7B4FC26
:1035C8002520FDF7E5FC0FB0BDE8F083744A93426F
:1035D80076D100266C4B02961A6C6C4842F4003285
:1035E8001A641A6C02F400320292029A03961A6B59
:1035F80042F001021A631A6B02F001020392039A65
:1036080004961A6B42F008021A631B6B03F0080356
:1036180004934FF002090725049BCDF8289008234E
:103628004FF00108032709A909930D95CDF82C80BF
:103638000C97FDF7B1FE20235A48099309A9CDF844
:1036480028900D95CDF82C80574D0C97FDF7A4FECA
:10365800564BAE604FF0006985E8080228464FF4E3
:103668008063EE602B616E61AE61EE612E626E6208
:10367800FDF7C8FC08B1FFF785FB65634C4BAC63ED
:103688004C4D4FF000684FF0400C85E808114FF49E
:10369800806200232846EB602A616B61AB61EB61B5
:1036A8002B626B62FDF7AEFC08B1FFF76BFB0022E3
:1036B800256326201146AC63FDF736FC262080E7FB
:1036C8003D4A934240F0848000262F4B05961A6CA1
:1036D8003A483B4D42F480221A641A6C02F4802264
:1036E8000592059A06961A6B42F002021A631B6B42
:1036F80003F002030693069B4FF4406309930223E9
:103708000A9301230B9303230C9309A907230D9311
:10371800FDF742FE2B48AE604FF0006385E80900D4
:103728004FF480632846EE602B616E61AE61EE61F6
:103738002E626E62FDF766FC08B1FFF723FB656336
:103748002149AC63214D4FF00062402385E80E000B
:10375800284600234FF48062EB602A616B61AB61FD
:10376800EB612B626B62FDF74DFC08B1FFF70AFBBA
:103778000022256327201146AC63FDF7D5FB2720DF
:103788001FE700BF0010014000380240000002405F
:103798003C03002040640240B86402407C020020E0
:1037A80000440040000C0240B8000020886002403D
:1037B800A06002409C030020004800400004024032
:1037C800780100202860024058600240180200205A
:1037D8002F4A93427FF4F7AE00262E4B07965A6C79
:1037E8002D482E4D42F020025A645A6C02F02002F5
:1037F8000792079A08961A6B42F004021A631B6B29
:1038080003F004030893089BC023099302230A9337
:1038180001230B9303230C9309A908230D93FDF7A8
:10382800BBFD1F4BAE604FF0206E85E80840284670
:103838004FF48063EE602B616E61AE61EE612E62C3
:103848006E62FDF7DFFB08B1FFF79CFA6563154B65
:10385800AC63154D4FF02066402785E8C8004FF44B
:10386800806200232846EB602A616B61AB61EB61E3
:103878002B626B62FDF7C6FB08B1FFF783FA0022E3
:10388800256347201146AC63FDF74EFB472098E6B9
:1038980000140140003802400008024018010020CE
:1038A80028640240A0640240DC020020DFF834D023
:1038B800002103E00C4B5B58435004310B480C4B80
:1038C80042189A42F6D30B4A02E0002342F8043B1E
:1038D800094B9A42F9D3FFF75FFC00F011F8FFF7A4
:1038E80045F8704700000220484800080000002002
:1038F8004C0000204C00002008060020FEE70000D5
:1039080070B50D4E0D4CA41BA4100025A54209D17D
:103918000B4E0C4C00F088FDA41BA4100025A542FA
:1039280005D170BD56F8253098470135EEE756F8B1
:10393800253098470135F2E740480008404800081C
:10394800404800084448000802440346934200D116
:10395800704703F8011BF9E710EE103A07B51C4A47
:1039680023F00043934204DCDFED1A0A00F0A2F9C9
:1039780004E0B3F1FF4F04DB30EE400A03B05DF81A
:1039880004FB684600F06AF800F00300012807D03D
:1039980002280ED0A0B9DDED010A9DED000AE5E789
:1039A800DDED010A9DED000A00F040FCB1EE400A91
:1039B800E4E7DDED010A9DED000A00F07BF9F5E78B
:1039C8000120DDED010A9DED000A00F02FFCD5E78E
:1039D800D80F493F0000000010EE103A07B51D4A05
:1039E80023F00043934205DCDFED1B0A002000F0C2
:1039F8001DFC04E0B3F1FF4F04DB30EE400A03B0D6
:103A08005DF804FB684600F029F800F0030001287F
:103A180008D002280DD0B0B90120DDED010A9DEDD6
:103A2800000AE4E7DDED010A9DED000A00F042F925
:103A3800E5E70120DDED010A9DED000A00F0F6FB47
:103A4800B1EE400ADBE7DDED010A9DED000A00F06A
:103A580031F9F5E7D80F493F00000000F0B510EE46
:103A6800106A864B26F000449C4287B0054605DC68
:103A7800002385ED000A4360002020E0804B9C4233
:103A880038DC002E9FED7F7A7F4B24F00F0418DD81
:103A98009C4270EE477A09BF9FED7C7A9FED7C7A55
:103AA80077EEC77A9FED7B7A77EEC76A77EEE67A8C
:103AB800C0ED006A77EEC77AC0ED017A012007B041
:103AC800F0BD9C4270EE077A09BF9FED707A9FEDBA
:103AD800707A77EE877A9FED6F7A77EE876A77EE5E
:103AE800E67AC0ED006A77EE877AC0ED017A4FF08A
:103AF800FF30E4E7684B9C4271DC00F0DFFB9FED90
:103B0800677AF6EE007AE0EE077AFDEEE77AB8EE2D
:103B1800E76A17EE900ADFED5B7AB1EE467AA7EE18
:103B2800270A1F28DFED5A7A66EE277A70EE676A51
:103B380016EE903A1CDC471E594951F8271024F01C
:103B4800FF028A4214D02B6095ED007A30EE470AC6
:103B5800002E30EE670A85ED010AB0DAB1EE477A39
:103B6800B1EE400A85ED007A85ED010A4042A6E7EC
:103B7800E415C3F3C752A21A082AE4DDDFED437A3D
:103B8800F0EE406AE7EE276A30EE660AA7EE270AEB
:103B9800DFED407A96EE270A76EEC05AF0EE407ACC
:103BA80015EE903AC3F3C752A41A192C04DCC5EDDC
:103BB800005AB0EE660AC7E7DFED3A5AB0EE660A79
:103BC800A7EE250A76EEC07AE7EE257A9FED367ADB
:103BD800D6EE077A30EE677A85ED007AB4E7B4F16D
:103BE800FF4F06DB70EE407AC0ED017AC0ED007A37
:103BF80042E7E215863AA4EBC25307EE903ABDEECF
:103C0800E77ADFED2A6AB8EEC77A77EEC77A8DEDE4
:103C1800037A67EEA67ABDEEE77AB8EEC77A77EE52
:103C2800C77A8DED047A67EEA67AF5EE407AF1EE62
:103C380010FACDED057A1ED1B5EE407AF1EE10FA04
:103C480014BF022301231A4901910221009103A8FC
:103C5800294600F08DF8002EBFF631AFD5ED007A79
:103C6800F1EE677AC5ED007AD5ED017AF1EE677A63
:103C7800C5ED017A7AE70323E5E700BFD80F493F8E
:103C8800E3CB1640800FC93FD00FC93F00443537FA
:103C98004344353708A3852E800F494384F9223FD2
:103CA8006844000800A3852E32318D24000080432B
:103CB800E844000810EE103A23F00043B3F1485FDF
:103CC800F7EE006A05DAFDEEC07A17EE902A002AB0
:103CD8003BD020EE007A9FED1E6ADFED1E7ADFED05
:103CE8001E5A1E4AA7EE276A934260EE200AE7EEA4
:103CF800065A9FED1B6AA7EE256ADFED1A5AE7EE12
:103D0800065A9FED196AA7EE256AF6EE005A26EEC6
:103D1800076A06DCD7EE060AD7EE250A36EEE00A71
:103D28007047124A9342DABF03F17F4307EE903A95
:103D3800F5EE027A76EEE76AD7EE060AD7EE257A2E
:103D480077EEE07A36EEE70A7047B0EE660A70471B
:103D5800F6740F314ED747AD7CF293B49999993EDA
:103D6800010DD037610BB6BAABAA2A3D0000483F17
:103D78002DE9F04F2DED048BD7B08B460193649954
:103D8800CB4B029053F821A0019B659E9FEDCC7A06
:103D9800013BD01E082490FBF4F020EAE070451C9B
:103DA800C71AA2EBC5050AEB030E1AAC06EB870C83
:103DB800002272450FDD0DF5847E0024544526DC73
:103DC800019A029FDFEDBE7A22441AA901EB820212
:103DD8004FF0000C15E0D7425DBF5CF8221007EEEB
:103DE800901AF8EEE77AF0EE477AE4EC017A0132BD
:103DF800DFE7F7EC016A32ED017AE6EE877A0CF13B
:103E0800010C9C45F5DDEEEC017A0134D6E706AAF3
:103E180002EB8A020492DFEDA78A9FEDA79A06EBD0
:103E280080020392574656AA07F1804802EB8702A0
:103E380008F1FF3812ED140A4FEA880856AA02EB77
:103E480008004C380022BC1A002C4ADC284605938E
:103E580000F07EFAB0EE408AB4EE000A28EE000ABE
:103E680000F034FAF2EE007AA0EE678A002D059B86
:103E7800FDEEC87A17EE909AF8EEE77A38EE678A80
:103E880044DD781E06AAC5F1080452F8206046FAF7
:103E980004F29144A240B61A06AA42F82060C5F17D
:103EA80007021641002E40DD002409F101092046D1
:103EB800A74275DC002D05DD012D00F08680022D5E
:103EC80000F08D80022E30D1B7EE000A30EE488A1D
:103ED80058B32846059300F03BFA059B38EE408A14
:103EE80023E060EE287A06ACFDEEE77AF8EEE77A92
:103EF800A7EEC90ABDEEC00A10EE101A30ED010A8D
:103F080044F8221037EE800A01329CE705D17A1E68
:103F180006A951F822603612C4E7F6EE007AB4EE2C
:103F2800E78AF1EE10FA39DA0026B5EE408AF1EEAA
:103F380010FA40F08D807C1E20460022504555DA4C
:103F4800002A64D101246FF0030000FB04F20499F5
:103F58008A58002A50D056AA9044019A1AA93A447D
:103F6800781CA8F1480801EB82022744B8423FF7C1
:103F78005AAF0399029E51F82010059107EE901A46
:103F8800F8EEE77A0024E2EC017ADFED4D7A964606
:103F98009C4233DDE8EC017A0130E7E7022683E74B
:103FA80006AA52F8242048B92AB106A9C2F5807297
:103FB80041F8242001220134104679E706A9C2F10C
:103FC800FF0241F824200246F5E77C1E06AA52F8B3
:103FD800242002F07F0206A941F8242072E77C1E03
:103FE80006AA52F8242002F03F02F4E706A951F885
:103FF800201001380A43A1E70134A6E7F6EC016A6C
:104008003EED017A0134E6EE877AC1E7013C06AB62
:10401800083D53F82430002BF8D02846B7EE000AA4
:1040280000F096F9A30042AA04339FED227AD01833
:104038002246002A46DA0DF1B80E0022A51A60D4ED
:1040480042A91E4FDFED1E7A01EB8505002050E0E6
:104058006842B0EE480A00F07BF99FED177AB4EE9B
:10406800C70AF1EE10FA19DBDFED127A60EE277A53
:1040780006AAFDEEE77A7C1CF8EEE77A0835A7EE8B
:10408800C70AFDEEE77ABDEEC00A10EE103A42F814
:10409800273017EE903A42F82430BEE7BDEEC00A4A
:1040A80006AA10EE103A3C4642F82730B5E700BFA2
:1040B8002C4800080000803B0000804300480008AE
:1040C8000000000006A951F82210019107EE901A8D
:1040D800F8EEE77A013A67EE807A20EE070A60ED9B
:1040E800017AA6E7F7EC016AB5EC017AE6EE877A81
:1040F8000130504501DC9042F4DDEEEC017A0132EA
:104108009CE7649A032A43D8DFE802F0371D1D02B2
:104118002EAA13441A462046002855DC1A46204683
:10412800012861DC5FED1A7A012C6DDCDDED2E6A69
:104138009DED2F7A002E6DD1CBED006A8BED017AC3
:10414800CBED027A24E02EAA1FED237A13442246EF
:10415800002A2ADA7EB3F1EE477ACBED007ADDED5C
:104168002E7A77EEC77A2FAA01239C4226DA0EB15F
:10417800F1EE677ACBED017A0AE02EAA5FED307A8C
:104188001344002C0BDA0EB1F1EE677ACBED007A0E
:1041980009F0070057B0BDEC048BBDE8F08F33ED94
:1041A800017A013C77EE877AEBE773ED017A013A01
:1041B80037EE277ACCE7F0EE477ACEE7B2EC017A11
:1041C800013377EE877AD0E752ED016A52ED027A31
:1041D80037EEA67A013877EEC77A77EEA67A62EDDF
:1041E800017A02ED017A97E752ED016A52ED027AFF
:1041F80037EEA67A013877EEC77A77EEA67A62EDBF
:10420800017A02ED017A8BE733ED017A013C77EE12
:10421800877A89E7F1EE666AB1EE477ACBED006AF4
:104228008BED017AF1EE677A8AE700BF10EE103A5B
:1042380023F00043B3F1485F04DAFDEEC07A17EECD
:10424800903A5BB320EE007ADFED157A9FED156AA0
:10425800A7EE276ADFED147AE7EE067A9FED136A78
:10426800A7EE276ADFED127A60EE076AE7EE067AB4
:1042780030B99FED106AA7EE276AA6EE860A704746
:1042880067EEE67AB6EE006AE0EE867AD7EE270A9F
:10429800DFED097AE6EEA70A30EE600A704700BF44
:1042A800D3C92E2F342FD7B21BEF3836010D50B992
:1042B8008988083CABAA2ABEABAA2A3E10EE103A5F
:1042C80023F0004300EE103A7047000010EE103A59
:1042D80023F00041CA0D7F3A162A2ADC002A11DA97
:1042E800DFED187A30EE270AB5EEC00AF1EE10FAC3
:1042F80005DD002B23DA144A002918BF134600EE07
:10430800103A7047114911410B42FAD0DFED0D7A8E
:1043180030EE270AB5EEC00AF1EE10FAEFDD002BF9
:10432800BEBF4FF4000040FA02F29B1823EA0103D3
:10433800E5E7B1F1FF4FE4D330EE000A7047002300
:10434800DDE700BFCAF24971000080BFFFFF7F00B0
:1043580008B510EE102A32F000432DED028BF0EE76
:10436800400A04D0B3F1FF4F06D370EE000ABDEC4B
:10437800028BB0EE600A08BDB3F5000F1CD21F4BCC
:10438800DFED1F7A984260EE270A10DB10EE902AC4
:10439800C2F3C753193B0344FE2B0FDD9FED198A67
:1043A800B0EE480A00F034F860EE080ADFE7DFED07
:1043B800167A60EEA70ADAE7DB0DECE7002B06DDDC
:1043C80022F0FF4242EAC35300EE903ACFE713F1DE
:1043D800160F06DA4CF250339842DFDC9FED0A8A5A
:1043E800DEE7193322F0FF4242EAC353DFED077AD2
:1043F80007EE103A67EE270AB9E700BFB03CFFFFA7
:104408000000004CCAF249716042A20D000000335E
:1044180010EE103A10EE902A23F0004302F000420A
:10442800134300EE103A7047F8B500BFF8BC08BC5B
:104438009E467047F8B500BFF8BC08BC9E4670475A
:10444800000610160006101600000000000000000C
:104458000102030406070809000000000102030422
:10446800000FC93F000F494000CB9640000FC940DC
:104478000053FB4000CB164100ED2F41000F49418E
:104488000031624100537B41003A8A4100CB96419A
:10449800005CA34100EDAF41007EBC41000FC94163
:1044A80000A0D5410031E24100C2EE410053FB417A
:1044B80000F20342003A0A420083104200CB16423F
:1044C80000141D42005C234200A5294200ED2F4242
:1044D80000363642007E3C4200C74242000F494245
:1044E800A2000000F9000000830000006E00000038
:1044F8004E000000440000001500000029000000E4
:10450800FC0000002700000057000000D100000058
:10451800F500000034000000DD000000C0000000CD
:10452800DB00000062000000950000009900000018
:104538003C00000043000000900000004100000023
:10454800FE0000005100000063000000AB00000006
:10455800DE000000BB000000C50000006100000094
:10456800B7000000240000006E0000003A000000C0
:10457800420000004D000000D2000000E0000000F2
:1045880006000000490000002E000000EA000000BC
:1045980009000000D1000000920000001C0000008B
:1045A800FE0000001D000000EB0000001C000000E1
:1045B800B100000029000000A70000003E00000034
:1045C800E80000008200000035000000F50000004F
:1045D8002E000000BB000000440000008400000022
:1045E800E90000009C0000007000000026000000A8
:1045F800B40000005F0000007E00000041000000E1
:104608003900000091000000D600000039000000C9
:10461800830000005300000039000000F40000008F
:104628009C000000840000005F0000008B00000078
:10463800BD000000F9000000280000003B00000059
:104648001F000000F800000097000000FF000000B5
:10465800DE00000005000000980000000F000000C8
:10466800EF0000002F000000110000008B00000088
:104678005A0000000A0000006D0000001F00000042
:104688006D000000360000007E000000CF00000032
:1046980027000000CB00000009000000B700000060
:1046A8004F000000460000003F00000066000000C8
:1046B8009E0000005F000000EA0000002D000000DE
:1046C8007500000027000000BA000000C7000000C5
:1046D800EB000000E5000000F10000007B00000096
:1046E8003D0000000700000039000000F70000004E
:1046F8008A0000005200000092000000EA0000005A
:104708006B000000FB0000005F000000B10000002B
:104718001F0000008D0000005D0000000800000080
:1047280056000000030000003000000046000000B2
:10473800FC0000007B0000006B000000AB000000E4
:10474800F0000000CF000000BC00000020000000C6
:104758009A000000F4000000360000001D00000070
:10476800A9000000E30000009100000061000000C3
:104778005E000000E60000001B00000008000000CA
:104788006500000099000000850000005F0000003F
:1047980014000000A00000006800000040000000B5
:1047A8008D000000FF000000D8000000800000001D
:1047B8004D000000730000002700000031000000D9
:1047C800060000000600000015000000560000006A
:1047D800CA00000073000000A8000000C900000023
:1047E80060000000E20000007B000000C000000044
:1047F8008C0000006B0000000000C93F0000F03989
:104808000000DA370000A2330000842E0000502B8D
:104818000000C2270000D0220000C41F0000C61BF1
:104828000000441704000000070000000900000011
:0848380054C3FF7F01000000E2
:04484000AD010008BE
:0448440089010008DE
:104848000100000010000000010101010101010147
:10485800010101010101010101697473FFFFFFFFFB
:10486800FFFF6974730000000000000000000000F2
:10487800000000000000000000000A000000B44230
:0C4888000000B442DB0FC93F0024F40024
:04000005080038B502
:00000001FF
